{"abi":[{"type":"constructor","inputs":[{"name":"_gold","type":"address","internalType":"contract IERC20"},{"name":"_seagold","type":"address","internalType":"contract IERC20"}],"stateMutability":"nonpayable"},{"type":"function","name":"INTEREST_RATE_PERCENT","inputs":[],"outputs":[{"name":"","type":"uint256","internalType":"uint256"}],"stateMutability":"view"},{"type":"function","name":"borrow","inputs":[{"name":"_amount","type":"uint256","internalType":"uint256"}],"outputs":[],"stateMutability":"nonpayable"},{"type":"function","name":"depositGold","inputs":[{"name":"_amount","type":"uint256","internalType":"uint256"}],"outputs":[],"stateMutability":"payable"},{"type":"function","name":"gold","inputs":[],"outputs":[{"name":"","type":"address","internalType":"contract IERC20"}],"stateMutability":"view"},{"type":"function","name":"liquidate","inputs":[{"name":"_borrower","type":"address","internalType":"address"}],"outputs":[],"stateMutability":"nonpayable"},{"type":"function","name":"repay","inputs":[{"name":"_amount","type":"uint256","internalType":"uint256"}],"outputs":[],"stateMutability":"nonpayable"},{"type":"function","name":"seagold","inputs":[],"outputs":[{"name":"","type":"address","internalType":"contract IERC20"}],"stateMutability":"view"},{"type":"function","name":"updatedAccount","inputs":[{"name":"_accountOwner","type":"address","internalType":"address"}],"outputs":[{"name":"account","type":"tuple","internalType":"struct SharkVault.LoanAccount","components":[{"name":"depositedGold","type":"uint256","internalType":"uint256"},{"name":"borrowedSeagold","type":"uint256","internalType":"uint256"},{"name":"lastBlock","type":"uint256","internalType":"uint256"}]}],"stateMutability":"view"},{"type":"function","name":"withdrawGold","inputs":[{"name":"_amount","type":"uint256","internalType":"uint256"}],"outputs":[],"stateMutability":"payable"}],"bytecode":{"object":"0x60c060405234801561001057600080fd5b50604051610a28380380610a2883398101604081905261002f91610062565b6001600160a01b039182166080521660a052610095565b80516001600160a01b038116811461005d57600080fd5b919050565b6000806040838503121561007557600080fd5b61007e83610046565b915061008c60208401610046565b90509250929050565b60805160a05161094c6100dc6000396000818160e4015281816103d901528181610607015261070d0152600081816101db01528181610492015261059e015261094c6000f3fe6080604052600436106100865760003560e01c80633c47d1ef116100595780633c47d1ef14610160578063465a7007146101835780639835e09214610196578063c5ebeaec146101a9578063fbec6f21146101c957600080fd5b80630e0359a01461008b57806314547f8f146100d25780632f8655681461011e578063371fd8e614610140575b600080fd5b34801561009757600080fd5b506100ab6100a63660046107d6565b6101fd565b60408051825181526020808401519082015291810151908201526060015b60405180910390f35b3480156100de57600080fd5b506101067f000000000000000000000000000000000000000000000000000000000000000081565b6040516001600160a01b0390911681526020016100c9565b34801561012a57600080fd5b5061013e6101393660046107d6565b6102d5565b005b34801561014c57600080fd5b5061013e61015b366004610806565b610365565b34801561016c57600080fd5b50610175600181565b6040519081526020016100c9565b61013e610191366004610806565b61044c565b61013e6101a4366004610806565b61050b565b3480156101b557600080fd5b5061013e6101c4366004610806565b6105cd565b3480156101d557600080fd5b506101067f000000000000000000000000000000000000000000000000000000000000000081565b61022160405180606001604052806000815260200160008152602001600081525090565b506001600160a01b03811660009081526020818152604091829020825160608101845281548152600182015492810183905260029091015492810192909252156102ca5760008160400151436102779190610835565b905060006064600183856020015161028f919061084e565b610299919061084e565b6102a39190610865565b905080836000015110156102b85760006102c5565b82516102c5908290610835565b835250505b436040820152919050565b60006102e0826101fd565b90506102eb816107ae565b1561033d5760405162461bcd60e51b815260206004820152601c60248201527f426f72726f7765722068617320676f6f6420636f6c6c61746572616c0000000060448201526064015b60405180910390fd5b506001600160a01b031660009081526020819052604081208181556001810182905560020155565b6000610370336101fd565b905081816020018181516103849190610835565b90525033600081815260208181526040918290208451815590840151600182015583820151600290910155516323b872dd60e01b81526004810191909152306024820152604481018390526001600160a01b037f000000000000000000000000000000000000000000000000000000000000000016906323b872dd906064015b6020604051808303816000875af1158015610423573d6000803e3d6000fd5b505050506040513d601f19601f820116820180604052508101906104479190610887565b505050565b336000908152602081905260408120805483929061046b9084906108a9565b90915550506040516323b872dd60e01b8152336004820152306024820152604481018290527f00000000000000000000000000000000000000000000000000000000000000006001600160a01b0316906323b872dd906064016020604051808303816000875af11580156104e3573d6000803e3d6000fd5b505050506040513d601f19601f820116820180604052508101906105079190610887565b5050565b6000610516336101fd565b9050818160000181815161052a9190610835565b905250610536816107ae565b6105525760405162461bcd60e51b8152600401610334906108bc565b336000818152602081815260409182902084518155908401516001820155838201516002909101555163a9059cbb60e01b81526004810191909152602481018390526001600160a01b037f0000000000000000000000000000000000000000000000000000000000000000169063a9059cbb90604401610404565b60006105d8336101fd565b905081816020018181516105ec91906108a9565b9052506040516370a0823160e01b81523060048201526000907f00000000000000000000000000000000000000000000000000000000000000006001600160a01b0316906370a0823190602401602060405180830381865afa158015610656573d6000803e3d6000fd5b505050506040513d601f19601f8201168201806040525081019061067a91906108fd565b9050808311156106cc5760405162461bcd60e51b815260206004820152601d60248201527f496e73756666696369656e742024534541474f4c4420746f206c656e640000006044820152606401610334565b6106d5826107ae565b6106f15760405162461bcd60e51b8152600401610334906108bc565b60405163a9059cbb60e01b8152336004820152602481018490527f00000000000000000000000000000000000000000000000000000000000000006001600160a01b03169063a9059cbb906044016020604051808303816000875af115801561075e573d6000803e3d6000fd5b505050506040513d601f19601f820116820180604052508101906107829190610887565b505033600090815260208181526040918290208351815590830151600182015591015160029091015550565b6000816020015160046107c1919061084e565b82516107ce90600361084e565b101592915050565b6000602082840312156107e857600080fd5b81356001600160a01b03811681146107ff57600080fd5b9392505050565b60006020828403121561081857600080fd5b5035919050565b634e487b7160e01b600052601160045260246000fd5b818103818111156108485761084861081f565b92915050565b80820281158282048414176108485761084861081f565b60008261088257634e487b7160e01b600052601260045260246000fd5b500490565b60006020828403121561089957600080fd5b815180151581146107ff57600080fd5b808201808211156108485761084861081f565b60208082526021908201527f556e646572636f6c6c61746572616c697a65642024534541474f4c44206c6f616040820152603760f91b606082015260800190565b60006020828403121561090f57600080fd5b505191905056fea264697066735822122042f7ec899c0969c47754153056565f332b84cf3d91006557155a99e7ddcf191464736f6c63430008130033","linkReferences":{}},"methodIdentifiers":{"INTEREST_RATE_PERCENT()":"3c47d1ef","borrow(uint256)":"c5ebeaec","depositGold(uint256)":"465a7007","gold()":"fbec6f21","liquidate(address)":"2f865568","repay(uint256)":"371fd8e6","seagold()":"14547f8f","updatedAccount(address)":"0e0359a0","withdrawGold(uint256)":"9835e092"},"id":27}